{
  "transactions": [
    {
      "hash": "0xc56391780c06cafa60189be84ec2706c4f69450d234a82c8cf6b2e7c956d9f1b",
      "transactionType": "CALL",
      "contractName": null,
      "contractAddress": "0x48094c35511fb53c8f39ee5f74ed3378a1ea30a8",
      "function": "mintNFT(string)",
      "arguments": [
        "ipfs://bafybeifsexiiy4rkwr62m3ha4zcrxfo3dnjlhqqxwezxhemz3os5vbww7m/metadata.json"
      ],
      "transaction": {
        "from": "0x3e7ab2fe90e700dd092d437862f4a3c634c51731",
        "to": "0x48094c35511fb53c8f39ee5f74ed3378a1ea30a8",
        "gas": "0x32173",
        "value": "0x0",
        "input": "0xfb37e88300000000000000000000000000000000000000000000000000000000000000200000000000000000000000000000000000000000000000000000000000000050697066733a2f2f626166796265696673657869697934726b777236326d336861347a637278666f33646e6a6c6871717877657a7868656d7a336f733576627777376d2f6d657461646174612e6a736f6e00000000000000000000000000000000",
        "nonce": "0x11",
        "chainId": "0xaa36a7"
      },
      "additionalContracts": [],
      "isFixedGasLimit": false
    }
  ],
  "receipts": [
    {
      "status": "0x1",
      "cumulativeGasUsed": "0x1e6060e",
      "logs": [
        {
          "address": "0x48094c35511fb53c8f39ee5f74ed3378a1ea30a8",
          "topics": [
            "0xddf252ad1be2c89b69c2b068fc378daa952ba7f163c4a11628f55a4df523b3ef",
            "0x0000000000000000000000000000000000000000000000000000000000000000",
            "0x0000000000000000000000003e7ab2fe90e700dd092d437862f4a3c634c51731",
            "0x0000000000000000000000000000000000000000000000000000000000000002"
          ],
          "data": "0x",
          "blockHash": "0xd05eeee6521e18e5af7a0d25cf7d3974bfd69b58e144946e0c7474a42d6c4920",
          "blockNumber": "0x87d851",
          "blockTimestamp": "0x688f2624",
          "transactionHash": "0xc56391780c06cafa60189be84ec2706c4f69450d234a82c8cf6b2e7c956d9f1b",
          "transactionIndex": "0xc9",
          "logIndex": "0x185",
          "removed": false
        }
      ],
      "logsBloom": "0x04000000000000000000000000000000000000000000000000000001000100000000000000000000000000000000000000000000000000000000400000000000000000000000000000000008000000000000000000000000000000004000000000000000020000001000000000000800000000000000000000000010000000000000000000000000000000000000000000000000000000000000000000000000000000000000000000000100000000000000000000000000000000000000000000000002000000000000000000000000000000000000000000000000000020000000000000000000000000000000000000000000008000000000000000000000",
      "type": "0x2",
      "transactionHash": "0xc56391780c06cafa60189be84ec2706c4f69450d234a82c8cf6b2e7c956d9f1b",
      "transactionIndex": "0xc9",
      "blockHash": "0xd05eeee6521e18e5af7a0d25cf7d3974bfd69b58e144946e0c7474a42d6c4920",
      "blockNumber": "0x87d851",
      "gasUsed": "0x2443d",
      "effectiveGasPrice": "0x2c3390",
      "from": "0x3e7ab2fe90e700dd092d437862f4a3c634c51731",
      "to": "0x48094c35511fb53c8f39ee5f74ed3378a1ea30a8",
      "contractAddress": null
    }
  ],
  "libraries": [],
  "pending": [],
  "returns": {},
  "timestamp": 1754211870,
  "chain": 11155111,
  "commit": null
}