{
  "transactions": [
    {
      "hash": "0xb78f8a531b570767fe756c45a0ad2a8c2bccc841f151f993c98ff847c90adf97",
      "transactionType": "CALL",
      "contractName": null,
      "contractAddress": "0x19f76a69ffd3c6f4f3053513b601e59922d16ced",
      "function": "mintNFT(string)",
      "arguments": [
        "ipfs://bafybeifsexiiy4rkwr62m3ha4zcrxfo3dnjlhqqxwezxhemz3os5vbww7m/metadata.json"
      ],
      "transaction": {
        "from": "0x3e7ab2fe90e700dd092d437862f4a3c634c51731",
        "to": "0x19f76a69ffd3c6f4f3053513b601e59922d16ced",
        "gas": "0x3d9fa",
        "value": "0x0",
        "input": "0xfb37e88300000000000000000000000000000000000000000000000000000000000000200000000000000000000000000000000000000000000000000000000000000050697066733a2f2f626166796265696673657869697934726b777236326d336861347a637278666f33646e6a6c6871717877657a7868656d7a336f733576627777376d2f6d657461646174612e6a736f6e00000000000000000000000000000000",
        "nonce": "0x16",
        "chainId": "0xaa36a7"
      },
      "additionalContracts": [],
      "isFixedGasLimit": false
    }
  ],
  "receipts": [
    {
      "status": "0x1",
      "cumulativeGasUsed": "0xe672af",
      "logs": [
        {
          "address": "0x19f76a69ffd3c6f4f3053513b601e59922d16ced",
          "topics": [
            "0xddf252ad1be2c89b69c2b068fc378daa952ba7f163c4a11628f55a4df523b3ef",
            "0x0000000000000000000000000000000000000000000000000000000000000000",
            "0x0000000000000000000000003e7ab2fe90e700dd092d437862f4a3c634c51731",
            "0x0000000000000000000000000000000000000000000000000000000000000000"
          ],
          "data": "0x",
          "blockHash": "0x6dc0cc7f66adbd85f219f39e37d48fa0f623325b7781ac46f1b36cdc4eca410f",
          "blockNumber": "0x87d947",
          "blockTimestamp": "0x688f31c4",
          "transactionHash": "0xb78f8a531b570767fe756c45a0ad2a8c2bccc841f151f993c98ff847c90adf97",
          "transactionIndex": "0xc6",
          "logIndex": "0x11e",
          "removed": false
        }
      ],
      "logsBloom": "0x00000000000000000000000000000000000000000000000000000000000000000000000000000000000000000000000000000000000000000000400000000000000000000000000000000008000000000000000000000800000000004000000000000000020000101000000000000800000000000000000000000010000000000000000000000000000000000000000000000000000000000000000000000000000000001000000000000000000000000000000000000000000000000000000000000002000000000000000000000000000000000000000000000000000020000000000000000000000000000000000000000000000000000000000000000000",
      "type": "0x2",
      "transactionHash": "0xb78f8a531b570767fe756c45a0ad2a8c2bccc841f151f993c98ff847c90adf97",
      "transactionIndex": "0xc6",
      "blockHash": "0x6dc0cc7f66adbd85f219f39e37d48fa0f623325b7781ac46f1b36cdc4eca410f",
      "blockNumber": "0x87d947",
      "gasUsed": "0x2c9d5",
      "effectiveGasPrice": "0x1920fa",
      "from": "0x3e7ab2fe90e700dd092d437862f4a3c634c51731",
      "to": "0x19f76a69ffd3c6f4f3053513b601e59922d16ced",
      "contractAddress": null
    }
  ],
  "libraries": [],
  "pending": [],
  "returns": {},
  "timestamp": 1754214845,
  "chain": 11155111,
  "commit": null
}