{
  "transactions": [
    {
      "hash": "0xf742372aa12027f5b59cdcb77ebf9d82a2f7f2e5a5f3ea7fbd59eb0e9b4e3a88",
      "transactionType": "CALL",
      "contractName": null,
      "contractAddress": "0x48094c35511fb53c8f39ee5f74ed3378a1ea30a8",
      "function": "mintNFT(string)",
      "arguments": [
        "ipfs://bafybeig37ioir76s7mg5oobetncojcm3c3hxasyd4rvid4jqhy4gkaheg4/?filename=0-PUG.json"
      ],
      "transaction": {
        "from": "0x3e7ab2fe90e700dd092d437862f4a3c634c51731",
        "to": "0x48094c35511fb53c8f39ee5f74ed3378a1ea30a8",
        "gas": "0x35113",
        "value": "0x0",
        "input": "0xfb37e88300000000000000000000000000000000000000000000000000000000000000200000000000000000000000000000000000000000000000000000000000000057697066733a2f2f62616679626569673337696f6972373673376d67356f6f6265746e636f6a636d3363336878617379643472766964346a71687934676b61686567342f3f66696c656e616d653d302d5055472e6a736f6e000000000000000000",
        "nonce": "0x10",
        "chainId": "0xaa36a7"
      },
      "additionalContracts": [],
      "isFixedGasLimit": false
    }
  ],
  "receipts": [
    {
      "status": "0x1",
      "cumulativeGasUsed": "0xd96442",
      "logs": [
        {
          "address": "0x48094c35511fb53c8f39ee5f74ed3378a1ea30a8",
          "topics": [
            "0xddf252ad1be2c89b69c2b068fc378daa952ba7f163c4a11628f55a4df523b3ef",
            "0x0000000000000000000000000000000000000000000000000000000000000000",
            "0x0000000000000000000000003e7ab2fe90e700dd092d437862f4a3c634c51731",
            "0x0000000000000000000000000000000000000000000000000000000000000001"
          ],
          "data": "0x",
          "blockHash": "0x67ad77d7efa91e9c76a09e223de183b7bbdce42dc15aa790615acd6b09efdcb7",
          "blockNumber": "0x87d82d",
          "blockTimestamp": "0x688f2474",
          "transactionHash": "0xf742372aa12027f5b59cdcb77ebf9d82a2f7f2e5a5f3ea7fbd59eb0e9b4e3a88",
          "transactionIndex": "0xc3",
          "logIndex": "0x118",
          "removed": false
        }
      ],
      "logsBloom": "0x00000000000000000000000000000000000000000000000000000001000100000000000000000000000000000000000000000000000000000000400000040000000000000000000000000008000000000000000000040000000000004000000000000000020000001000000000000800000000000000000000000010000000000000000000000000000000000000000000000000000000000000000000000000000000000000000000000000000000000000000000000000000000000000000000000002000000000000000000000000000000000000000000000000000060000000000000000000000000000000000000000000000000000000000000000000",
      "type": "0x2",
      "transactionHash": "0xf742372aa12027f5b59cdcb77ebf9d82a2f7f2e5a5f3ea7fbd59eb0e9b4e3a88",
      "transactionIndex": "0xc3",
      "blockHash": "0x67ad77d7efa91e9c76a09e223de183b7bbdce42dc15aa790615acd6b09efdcb7",
      "blockNumber": "0x87d82d",
      "gasUsed": "0x24491",
      "effectiveGasPrice": "0x29368b",
      "from": "0x3e7ab2fe90e700dd092d437862f4a3c634c51731",
      "to": "0x48094c35511fb53c8f39ee5f74ed3378a1ea30a8",
      "contractAddress": null
    }
  ],
  "libraries": [],
  "pending": [],
  "returns": {},
  "timestamp": 1754211438,
  "chain": 11155111,
  "commit": null
}