{
  "transactions": [
    {
      "hash": "0x38bdea646ff8d8d92490abf6b7c0286f406816559b1b44be63976c0f38a7dfb5",
      "transactionType": "CALL",
      "contractName": null,
      "contractAddress": "0x71df138d7c1ed904acf8b83ee701c6223d0008bb",
      "function": "mintNFT(string)",
      "arguments": [
        "ipfs://bafybeig37ioir76s7mg5oobetncojcm3c3hxasyd4rvid4jqhy4gkaheg4/?filename=0-PUG.json"
      ],
      "transaction": {
        "from": "0x3e7ab2fe90e700dd092d437862f4a3c634c51731",
        "to": "0x71df138d7c1ed904acf8b83ee701c6223d0008bb",
        "gas": "0x35113",
        "value": "0x0",
        "input": "0xfb37e88300000000000000000000000000000000000000000000000000000000000000200000000000000000000000000000000000000000000000000000000000000057697066733a2f2f62616679626569673337696f6972373673376d67356f6f6265746e636f6a636d3363336878617379643472766964346a71687934676b61686567342f3f66696c656e616d653d302d5055472e6a736f6e000000000000000000",
        "nonce": "0xe",
        "chainId": "0xaa36a7"
      },
      "additionalContracts": [],
      "isFixedGasLimit": false
    }
  ],
  "receipts": [
    {
      "status": "0x1",
      "cumulativeGasUsed": "0x111233a",
      "logs": [
        {
          "address": "0x71df138d7c1ed904acf8b83ee701c6223d0008bb",
          "topics": [
            "0xddf252ad1be2c89b69c2b068fc378daa952ba7f163c4a11628f55a4df523b3ef",
            "0x0000000000000000000000000000000000000000000000000000000000000000",
            "0x0000000000000000000000003e7ab2fe90e700dd092d437862f4a3c634c51731",
            "0x0000000000000000000000000000000000000000000000000000000000000002"
          ],
          "data": "0x",
          "blockHash": "0x3614a4c78fe9709e42459484cea4bd0be4d5a9f34f355813ce74059c34c5025f",
          "blockNumber": "0x87d816",
          "blockTimestamp": "0x688f2360",
          "transactionHash": "0x38bdea646ff8d8d92490abf6b7c0286f406816559b1b44be63976c0f38a7dfb5",
          "transactionIndex": "0x72",
          "logIndex": "0xd0",
          "removed": false
        }
      ],
      "logsBloom": "0x04000000000000000000000000000000000000000000000000000000000000000000000000000000000000000000000000000000000000000000400000000000000000000000000000000008000000000000000000000000000000004000000000000000020000001000020000000800000000000000000000000010000000000000000000000000000000000000000000000000000000000000040000000000000000000000000000000100000000000000000000000000000000000000000000000002000000000000000000000000000000000000000000000000000020040000000000000000000000000000000000000000008000000000000000000000",
      "type": "0x2",
      "transactionHash": "0x38bdea646ff8d8d92490abf6b7c0286f406816559b1b44be63976c0f38a7dfb5",
      "transactionIndex": "0x72",
      "blockHash": "0x3614a4c78fe9709e42459484cea4bd0be4d5a9f34f355813ce74059c34c5025f",
      "blockNumber": "0x87d816",
      "gasUsed": "0x24491",
      "effectiveGasPrice": "0x420051",
      "from": "0x3e7ab2fe90e700dd092d437862f4a3c634c51731",
      "to": "0x71df138d7c1ed904acf8b83ee701c6223d0008bb",
      "contractAddress": null
    }
  ],
  "libraries": [],
  "pending": [],
  "returns": {},
  "timestamp": 1754211162,
  "chain": 11155111,
  "commit": null
}